{
  "contractName": "CropToken",
  "abi": [
    {
      "anonymous": false,
      "inputs": [
        {
          "indexed": true,
          "internalType": "address",
          "name": "_owner",
          "type": "address"
        },
        {
          "indexed": true,
          "internalType": "address",
          "name": "_operator",
          "type": "address"
        },
        {
          "indexed": false,
          "internalType": "bool",
          "name": "_approved",
          "type": "bool"
        }
      ],
      "name": "ApprovalForAll",
      "type": "event"
    },
    {
      "anonymous": false,
      "inputs": [
        {
          "indexed": true,
          "internalType": "address",
          "name": "_operator",
          "type": "address"
        },
        {
          "indexed": true,
          "internalType": "address",
          "name": "_from",
          "type": "address"
        },
        {
          "indexed": true,
          "internalType": "address",
          "name": "_to",
          "type": "address"
        },
        {
          "indexed": false,
          "internalType": "uint256[]",
          "name": "_ids",
          "type": "uint256[]"
        },
        {
          "indexed": false,
          "internalType": "uint256[]",
          "name": "_amounts",
          "type": "uint256[]"
        }
      ],
      "name": "TransferBatch",
      "type": "event"
    },
    {
      "anonymous": false,
      "inputs": [
        {
          "indexed": true,
          "internalType": "address",
          "name": "_operator",
          "type": "address"
        },
        {
          "indexed": true,
          "internalType": "address",
          "name": "_from",
          "type": "address"
        },
        {
          "indexed": true,
          "internalType": "address",
          "name": "_to",
          "type": "address"
        },
        {
          "indexed": false,
          "internalType": "uint256",
          "name": "_id",
          "type": "uint256"
        },
        {
          "indexed": false,
          "internalType": "uint256",
          "name": "_amount",
          "type": "uint256"
        }
      ],
      "name": "TransferSingle",
      "type": "event"
    },
    {
      "anonymous": false,
      "inputs": [
        {
          "indexed": false,
          "internalType": "string",
          "name": "_amount",
          "type": "string"
        },
        {
          "indexed": true,
          "internalType": "uint256",
          "name": "_id",
          "type": "uint256"
        }
      ],
      "name": "URI",
      "type": "event"
    },
    {
      "inputs": [
        {
          "internalType": "address",
          "name": "_owner",
          "type": "address"
        },
        {
          "internalType": "uint256",
          "name": "_id",
          "type": "uint256"
        }
      ],
      "name": "balanceOf",
      "outputs": [
        {
          "internalType": "uint256",
          "name": "",
          "type": "uint256"
        }
      ],
      "stateMutability": "view",
      "type": "function"
    },
    {
      "inputs": [
        {
          "internalType": "address[]",
          "name": "_owners",
          "type": "address[]"
        },
        {
          "internalType": "uint256[]",
          "name": "_ids",
          "type": "uint256[]"
        }
      ],
      "name": "balanceOfBatch",
      "outputs": [
        {
          "internalType": "uint256[]",
          "name": "",
          "type": "uint256[]"
        }
      ],
      "stateMutability": "view",
      "type": "function"
    },
    {
      "inputs": [
        {
          "internalType": "address",
          "name": "_owner",
          "type": "address"
        },
        {
          "internalType": "address",
          "name": "_operator",
          "type": "address"
        }
      ],
      "name": "isApprovedForAll",
      "outputs": [
        {
          "internalType": "bool",
          "name": "isOperator",
          "type": "bool"
        }
      ],
      "stateMutability": "view",
      "type": "function"
    },
    {
      "inputs": [
        {
          "internalType": "address",
          "name": "_from",
          "type": "address"
        },
        {
          "internalType": "address",
          "name": "_to",
          "type": "address"
        },
        {
          "internalType": "uint256[]",
          "name": "_ids",
          "type": "uint256[]"
        },
        {
          "internalType": "uint256[]",
          "name": "_amounts",
          "type": "uint256[]"
        },
        {
          "internalType": "bytes",
          "name": "_data",
          "type": "bytes"
        }
      ],
      "name": "safeBatchTransferFrom",
      "outputs": [],
      "stateMutability": "nonpayable",
      "type": "function"
    },
    {
      "inputs": [
        {
          "internalType": "address",
          "name": "_from",
          "type": "address"
        },
        {
          "internalType": "address",
          "name": "_to",
          "type": "address"
        },
        {
          "internalType": "uint256",
          "name": "_id",
          "type": "uint256"
        },
        {
          "internalType": "uint256",
          "name": "_amount",
          "type": "uint256"
        },
        {
          "internalType": "bytes",
          "name": "_data",
          "type": "bytes"
        }
      ],
      "name": "safeTransferFrom",
      "outputs": [],
      "stateMutability": "nonpayable",
      "type": "function"
    },
    {
      "inputs": [
        {
          "internalType": "address",
          "name": "_operator",
          "type": "address"
        },
        {
          "internalType": "bool",
          "name": "_approved",
          "type": "bool"
        }
      ],
      "name": "setApprovalForAll",
      "outputs": [],
      "stateMutability": "nonpayable",
      "type": "function"
    },
    {
      "inputs": [
        {
          "internalType": "bytes4",
          "name": "_interfaceID",
          "type": "bytes4"
        }
      ],
      "name": "supportsInterface",
      "outputs": [
        {
          "internalType": "bool",
          "name": "",
          "type": "bool"
        }
      ],
      "stateMutability": "pure",
      "type": "function"
    },
    {
      "inputs": [
        {
          "internalType": "address",
          "name": "_to",
          "type": "address"
        },
        {
          "internalType": "uint256",
          "name": "_id",
          "type": "uint256"
        },
        {
          "internalType": "uint256",
          "name": "_amount",
          "type": "uint256"
        },
        {
          "internalType": "bytes",
          "name": "_data",
          "type": "bytes"
        }
      ],
      "name": "mint",
      "outputs": [],
      "stateMutability": "nonpayable",
      "type": "function"
    },
    {
      "inputs": [
        {
          "internalType": "address",
          "name": "_from",
          "type": "address"
        },
        {
          "internalType": "uint256[]",
          "name": "_ids",
          "type": "uint256[]"
        },
        {
          "internalType": "uint256[]",
          "name": "_amounts",
          "type": "uint256[]"
        }
      ],
      "name": "burn",
      "outputs": [],
      "stateMutability": "nonpayable",
      "type": "function"
    }
  ],
  "bytecode": "0x608060405234801561001057600080fd5b50612296806100206000396000f3fe608060405234801561001057600080fd5b50600436106100925760003560e01c80634e1273f4116100665780634e1273f4146104eb578063731133e91461068c578063a22cb4651461077b578063e985e9c5146107cb578063f242432a1461084557610092565b8062fdd58e1461009757806301ffc9a7146100f95780632eb2c2d61461015c5780633db0f8ab1461037f575b600080fd5b6100e3600480360360408110156100ad57600080fd5b81019080803573ffffffffffffffffffffffffffffffffffffffff16906020019092919080359060200190929190505050610954565b6040518082815260200191505060405180910390f35b6101446004803603602081101561010f57600080fd5b8101908080357bffffffffffffffffffffffffffffffffffffffffffffffffffffffff191690602001909291905050506109ae565b60405180821515815260200191505060405180910390f35b61037d600480360360a081101561017257600080fd5b81019080803573ffffffffffffffffffffffffffffffffffffffff169060200190929190803573ffffffffffffffffffffffffffffffffffffffff169060200190929190803590602001906401000000008111156101cf57600080fd5b8201836020820111156101e157600080fd5b8035906020019184602083028401116401000000008311171561020357600080fd5b919080806020026020016040519081016040528093929190818152602001838360200280828437600081840152601f19601f8201169050808301925050505050505091929192908035906020019064010000000081111561026357600080fd5b82018360208201111561027557600080fd5b8035906020019184602083028401116401000000008311171561029757600080fd5b919080806020026020016040519081016040528093929190818152602001838360200280828437600081840152601f19601f820116905080830192505050505050509192919290803590602001906401000000008111156102f757600080fd5b82018360208201111561030957600080fd5b8035906020019184600183028401116401000000008311171561032b57600080fd5b91908080601f016020809104026020016040519081016040528093929190818152602001838380828437600081840152601f19601f820116905080830192505050505050509192919290505050610a30565b005b6104e96004803603606081101561039557600080fd5b81019080803573ffffffffffffffffffffffffffffffffffffffff169060200190929190803590602001906401000000008111156103d257600080fd5b8201836020820111156103e457600080fd5b8035906020019184602083028401116401000000008311171561040657600080fd5b919080806020026020016040519081016040528093929190818152602001838360200280828437600081840152601f19601f8201169050808301925050505050505091929192908035906020019064010000000081111561046657600080fd5b82018360208201111561047857600080fd5b8035906020019184602083028401116401000000008311171561049a57600080fd5b919080806020026020016040519081016040528093929190818152602001838360200280828437600081840152601f19601f820116905080830192505050505050509192919290505050610b6c565b005b6106356004803603604081101561050157600080fd5b810190808035906020019064010000000081111561051e57600080fd5b82018360208201111561053057600080fd5b8035906020019184602083028401116401000000008311171561055257600080fd5b919080806020026020016040519081016040528093929190818152602001838360200280828437600081840152601f19601f820116905080830192505050505050509192919290803590602001906401000000008111156105b257600080fd5b8201836020820111156105c457600080fd5b803590602001918460208302840111640100000000831117156105e657600080fd5b919080806020026020016040519081016040528093929190818152602001838360200280828437600081840152601f19601f820116905080830192505050505050509192919290505050610c41565b6040518080602001828103825283818151815260200191508051906020019060200280838360005b8381101561067857808201518184015260208101905061065d565b505050509050019250505060405180910390f35b610779600480360360808110156106a257600080fd5b81019080803573ffffffffffffffffffffffffffffffffffffffff1690602001909291908035906020019092919080359060200190929190803590602001906401000000008111156106f357600080fd5b82018360208201111561070557600080fd5b8035906020019184600183028401116401000000008311171561072757600080fd5b91908080601f016020809104026020016040519081016040528093929190818152602001838380828437600081840152601f19601f820116905080830192505050505050509192919290505050610d9b565b005b6107c96004803603604081101561079157600080fd5b81019080803573ffffffffffffffffffffffffffffffffffffffff169060200190929190803515159060200190929190505050610e72565b005b61082d600480360360408110156107e157600080fd5b81019080803573ffffffffffffffffffffffffffffffffffffffff169060200190929190803573ffffffffffffffffffffffffffffffffffffffff169060200190929190505050610f71565b60405180821515815260200191505060405180910390f35b610952600480360360a081101561085b57600080fd5b81019080803573ffffffffffffffffffffffffffffffffffffffff169060200190929190803573ffffffffffffffffffffffffffffffffffffffff1690602001909291908035906020019092919080359060200190929190803590602001906401000000008111156108cc57600080fd5b8201836020820111156108de57600080fd5b8035906020019184600183028401116401000000008311171561090057600080fd5b91908080601f016020809104026020016040519081016040528093929190818152602001838380828437600081840152601f19601f820116905080830192505050505050509192919290505050611005565b005b60008060008473ffffffffffffffffffffffffffffffffffffffff1673ffffffffffffffffffffffffffffffffffffffff168152602001908152602001600020600083815260200190815260200160002054905092915050565b60007fd9b67a26000000000000000000000000000000000000000000000000000000007bffffffffffffffffffffffffffffffffffffffffffffffffffffffff1916827bffffffffffffffffffffffffffffffffffffffffffffffffffffffff19161415610a1f5760019050610a2b565b610a2882611141565b90505b919050565b8473ffffffffffffffffffffffffffffffffffffffff163373ffffffffffffffffffffffffffffffffffffffff161480610a705750610a6f8533610f71565b5b610ac5576040517f08c379a000000000000000000000000000000000000000000000000000000000815260040180806020018281038252602f8152602001806121b9602f913960400191505060405180910390fd5b600073ffffffffffffffffffffffffffffffffffffffff168473ffffffffffffffffffffffffffffffffffffffff161415610b4b576040517f08c379a000000000000000000000000000000000000000000000000000000000815260040180806020018281038252603081526020018061212d6030913960400191505060405180910390fd5b610b5785858585611192565b610b65858585855a866114f4565b5050505050565b33600260009054906101000a900473ffffffffffffffffffffffffffffffffffffffff1673ffffffffffffffffffffffffffffffffffffffff168173ffffffffffffffffffffffffffffffffffffffff1614610c30576040517f08c379a000000000000000000000000000000000000000000000000000000000815260040180806020018281038252601b8152602001807f73656e646572206d7573742062652067616d65206d616e61676572000000000081525060200191505060405180910390fd5b610c3b848484611786565b50505050565b60608151835114610c9d576040517f08c379a000000000000000000000000000000000000000000000000000000000815260040180806020018281038252602c81526020018061218d602c913960400191505060405180910390fd5b6060835167ffffffffffffffff81118015610cb757600080fd5b50604051908082528060200260200182016040528015610ce65781602001602082028036833780820191505090505b50905060005b8451811015610d9057600080868381518110610d0457fe5b602002602001015173ffffffffffffffffffffffffffffffffffffffff1673ffffffffffffffffffffffffffffffffffffffff1681526020019081526020016000206000858381518110610d5457fe5b6020026020010151815260200190815260200160002054828281518110610d7757fe5b6020026020010181815250508080600101915050610cec565b508091505092915050565b33600260009054906101000a900473ffffffffffffffffffffffffffffffffffffffff1673ffffffffffffffffffffffffffffffffffffffff168173ffffffffffffffffffffffffffffffffffffffff1614610e5f576040517f08c379a000000000000000000000000000000000000000000000000000000000815260040180806020018281038252601b8152602001807f73656e646572206d7573742062652067616d65206d616e61676572000000000081525060200191505060405180910390fd5b610e6b858585856119f9565b5050505050565b80600160003373ffffffffffffffffffffffffffffffffffffffff1673ffffffffffffffffffffffffffffffffffffffff16815260200190815260200160002060008473ffffffffffffffffffffffffffffffffffffffff1673ffffffffffffffffffffffffffffffffffffffff16815260200190815260200160002060006101000a81548160ff0219169083151502179055508173ffffffffffffffffffffffffffffffffffffffff163373ffffffffffffffffffffffffffffffffffffffff167f17307eab39ab6107e8899845ad3d59bd9653f200f220920489ca2b5937696c318360405180821515815260200191505060405180910390a35050565b6000600160008473ffffffffffffffffffffffffffffffffffffffff1673ffffffffffffffffffffffffffffffffffffffff16815260200190815260200160002060008373ffffffffffffffffffffffffffffffffffffffff1673ffffffffffffffffffffffffffffffffffffffff16815260200190815260200160002060009054906101000a900460ff16905092915050565b8473ffffffffffffffffffffffffffffffffffffffff163373ffffffffffffffffffffffffffffffffffffffff16148061104557506110448533610f71565b5b61109a576040517f08c379a000000000000000000000000000000000000000000000000000000000815260040180806020018281038252602a8152602001806120ce602a913960400191505060405180910390fd5b600073ffffffffffffffffffffffffffffffffffffffff168473ffffffffffffffffffffffffffffffffffffffff161415611120576040517f08c379a000000000000000000000000000000000000000000000000000000000815260040180806020018281038252602b8152602001806120a3602b913960400191505060405180910390fd5b61112c85858585611b48565b61113a858585855a86611d3c565b5050505050565b60006301ffc9a760e01b7bffffffffffffffffffffffffffffffffffffffffffffffffffffffff1916827bffffffffffffffffffffffffffffffffffffffffffffffffffffffff1916149050919050565b80518251146111ec576040517f08c379a00000000000000000000000000000000000000000000000000000000081526004018080602001828103825260358152602001806120f86035913960400191505060405180910390fd5b60008251905060005b818110156113e65761128583828151811061120c57fe5b60200260200101516000808973ffffffffffffffffffffffffffffffffffffffff1673ffffffffffffffffffffffffffffffffffffffff168152602001908152602001600020600087858151811061126057fe5b6020026020010151815260200190815260200160002054611f4c90919063ffffffff16565b6000808873ffffffffffffffffffffffffffffffffffffffff1673ffffffffffffffffffffffffffffffffffffffff16815260200190815260200160002060008684815181106112d157fe5b60200260200101518152602001908152602001600020819055506113738382815181106112fa57fe5b60200260200101516000808873ffffffffffffffffffffffffffffffffffffffff1673ffffffffffffffffffffffffffffffffffffffff168152602001908152602001600020600087858151811061134e57fe5b6020026020010151815260200190815260200160002054611fd590919063ffffffff16565b6000808773ffffffffffffffffffffffffffffffffffffffff1673ffffffffffffffffffffffffffffffffffffffff16815260200190815260200160002060008684815181106113bf57fe5b602002602001015181526020019081526020016000208190555080806001019150506111f5565b508373ffffffffffffffffffffffffffffffffffffffff168573ffffffffffffffffffffffffffffffffffffffff163373ffffffffffffffffffffffffffffffffffffffff167f4a39dc06d4c0dbc64b70af90fd698a233a518aa5d07e595d983b8c0526c8f7fb8686604051808060200180602001838103835285818151815260200191508051906020019060200280838360005b8381101561149657808201518184015260208101905061147b565b50505050905001838103825284818151815260200191508051906020019060200280838360005b838110156114d85780820151818401526020810190506114bd565b5050505090500194505050505060405180910390a45050505050565b6115138573ffffffffffffffffffffffffffffffffffffffff1661205d565b1561177e5760008573ffffffffffffffffffffffffffffffffffffffff1663bc197c8184338a8989886040518763ffffffff1660e01b8152600401808673ffffffffffffffffffffffffffffffffffffffff1681526020018573ffffffffffffffffffffffffffffffffffffffff168152602001806020018060200180602001848103845287818151815260200191508051906020019060200280838360005b838110156115ce5780820151818401526020810190506115b3565b50505050905001848103835286818151815260200191508051906020019060200280838360005b838110156116105780820151818401526020810190506115f5565b50505050905001848103825285818151815260200191508051906020019080838360005b8381101561164f578082015181840152602081019050611634565b50505050905090810190601f16801561167c5780820380516001836020036101000a031916815260200191505b5098505050505050505050602060405180830381600088803b1580156116a157600080fd5b5087f11580156116b5573d6000803e3d6000fd5b50505050506040513d60208110156116cc57600080fd5b8101908080519060200190929190505050905063bc197c8160e01b7bffffffffffffffffffffffffffffffffffffffffffffffffffffffff1916817bffffffffffffffffffffffffffffffffffffffffffffffffffffffff19161461177c576040517f08c379a000000000000000000000000000000000000000000000000000000000815260040180806020018281038252603f8152602001806121e8603f913960400191505060405180910390fd5b505b505050505050565b600082519050815181146117e5576040517f08c379a000000000000000000000000000000000000000000000000000000000815260040180806020018281038252603081526020018061215d6030913960400191505060405180910390fd5b60005b818110156118eb576118788382815181106117ff57fe5b60200260200101516000808873ffffffffffffffffffffffffffffffffffffffff1673ffffffffffffffffffffffffffffffffffffffff168152602001908152602001600020600087858151811061185357fe5b6020026020010151815260200190815260200160002054611f4c90919063ffffffff16565b6000808773ffffffffffffffffffffffffffffffffffffffff1673ffffffffffffffffffffffffffffffffffffffff16815260200190815260200160002060008684815181106118c457fe5b602002602001015181526020019081526020016000208190555080806001019150506117e8565b50600073ffffffffffffffffffffffffffffffffffffffff168473ffffffffffffffffffffffffffffffffffffffff163373ffffffffffffffffffffffffffffffffffffffff167f4a39dc06d4c0dbc64b70af90fd698a233a518aa5d07e595d983b8c0526c8f7fb8686604051808060200180602001838103835285818151815260200191508051906020019060200280838360005b8381101561199c578082015181840152602081019050611981565b50505050905001838103825284818151815260200191508051906020019060200280838360005b838110156119de5780820151818401526020810190506119c3565b5050505090500194505050505060405180910390a450505050565b611a5b826000808773ffffffffffffffffffffffffffffffffffffffff1673ffffffffffffffffffffffffffffffffffffffff168152602001908152602001600020600086815260200190815260200160002054611fd590919063ffffffff16565b6000808673ffffffffffffffffffffffffffffffffffffffff1673ffffffffffffffffffffffffffffffffffffffff1681526020019081526020016000206000858152602001908152602001600020819055508373ffffffffffffffffffffffffffffffffffffffff16600073ffffffffffffffffffffffffffffffffffffffff163373ffffffffffffffffffffffffffffffffffffffff167fc3d58168c5ae7397731d063d5bbf3d657854427343f4c083240f7aacaa2d0f628686604051808381526020018281526020019250505060405180910390a4611b4260008585855a86611d3c565b50505050565b611baa816000808773ffffffffffffffffffffffffffffffffffffffff1673ffffffffffffffffffffffffffffffffffffffff168152602001908152602001600020600085815260200190815260200160002054611f4c90919063ffffffff16565b6000808673ffffffffffffffffffffffffffffffffffffffff1673ffffffffffffffffffffffffffffffffffffffff168152602001908152602001600020600084815260200190815260200160002081905550611c5f816000808673ffffffffffffffffffffffffffffffffffffffff1673ffffffffffffffffffffffffffffffffffffffff168152602001908152602001600020600085815260200190815260200160002054611fd590919063ffffffff16565b6000808573ffffffffffffffffffffffffffffffffffffffff1673ffffffffffffffffffffffffffffffffffffffff1681526020019081526020016000206000848152602001908152602001600020819055508273ffffffffffffffffffffffffffffffffffffffff168473ffffffffffffffffffffffffffffffffffffffff163373ffffffffffffffffffffffffffffffffffffffff167fc3d58168c5ae7397731d063d5bbf3d657854427343f4c083240f7aacaa2d0f628585604051808381526020018281526020019250505060405180910390a450505050565b611d5b8573ffffffffffffffffffffffffffffffffffffffff1661205d565b15611f445760008573ffffffffffffffffffffffffffffffffffffffff1663f23a6e6184338a8989886040518763ffffffff1660e01b8152600401808673ffffffffffffffffffffffffffffffffffffffff1681526020018573ffffffffffffffffffffffffffffffffffffffff16815260200184815260200183815260200180602001828103825283818151815260200191508051906020019080838360005b83811015611e17578082015181840152602081019050611dfc565b50505050905090810190601f168015611e445780820380516001836020036101000a031916815260200191505b509650505050505050602060405180830381600088803b158015611e6757600080fd5b5087f1158015611e7b573d6000803e3d6000fd5b50505050506040513d6020811015611e9257600080fd5b8101908080519060200190929190505050905063f23a6e6160e01b7bffffffffffffffffffffffffffffffffffffffffffffffffffffffff1916817bffffffffffffffffffffffffffffffffffffffffffffffffffffffff191614611f42576040517f08c379a000000000000000000000000000000000000000000000000000000000815260040180806020018281038252603a815260200180612227603a913960400191505060405180910390fd5b505b505050505050565b600082821115611fc4576040517f08c379a00000000000000000000000000000000000000000000000000000000081526004018080602001828103825260178152602001807f536166654d617468237375623a20554e444552464c4f5700000000000000000081525060200191505060405180910390fd5b600082840390508091505092915050565b600080828401905083811015612053576040517f08c379a00000000000000000000000000000000000000000000000000000000081526004018080602001828103825260168152602001807f536166654d617468236164643a204f564552464c4f570000000000000000000081525060200191505060405180910390fd5b8091505092915050565b600080823f90506000801b811415801561209a57507fc5d2460186f7233c927e7db2dcc703c0e500b653ca82273b7bfad8045d85a47060001b8114155b91505091905056fe4552433131353523736166655472616e7366657246726f6d3a20494e56414c49445f524543495049454e544552433131353523736166655472616e7366657246726f6d3a20494e56414c49445f4f50455241544f5245524331313535235f7361666542617463685472616e7366657246726f6d3a20494e56414c49445f4152524159535f4c454e47544845524331313535237361666542617463685472616e7366657246726f6d3a20494e56414c49445f524543495049454e54455243313135354d696e744275726e2362617463684275726e3a20494e56414c49445f4152524159535f4c454e475448455243313135352362616c616e63654f6642617463683a20494e56414c49445f41525241595f4c454e47544845524331313535237361666542617463685472616e7366657246726f6d3a20494e56414c49445f4f50455241544f5245524331313535235f63616c6c6f6e45524331313535426174636852656365697665643a20494e56414c49445f4f4e5f524543454956455f4d45535341474545524331313535235f63616c6c6f6e4552433131353552656365697665643a20494e56414c49445f4f4e5f524543454956455f4d455353414745a26469706673582212206767568a154f7e4600e331acf6bb7208ca277d9be6ce8f5f260fd175039fec4864736f6c634300060c0033",
  "source": "pragma solidity ^0.6.12;\n\nimport 'multi-token-standard/contracts/tokens/ERC1155/ERC1155.sol';\nimport 'multi-token-standard/contracts/tokens/ERC1155/ERC1155MintBurn.sol';\ncontract CropToken is ERC1155,ERC1155MintBurn{\n    address game;\n    modifier isGame(address sender){\n        require(sender==game,\"sender must be game manager\");\n        _;\n    }\n    function mint(address _to, uint256 _id, uint256 _amount, bytes memory _data)  public isGame(msg.sender)  {\n         _mint(_to, _id,  _amount, _data);\n    }\n    function burn(address _from, uint256[] memory _ids, uint256[] memory _amounts)  public isGame(msg.sender) {\n        _batchBurn(_from,  _ids, _amounts);\n    }\n\n}",
  "sourcePath": "/Users/jjj/CHAINLINKHACK/realyield.farm-contracts/contracts/CropToken.sol",
  "compiler": {
    "name": "solc",
    "version": "0.6.12+commit.27d51765.Linux.g++"
  },
  "schemaVersion": "3.0.13",
  "updatedAt": "2020-09-13T23:29:35.733Z",
  "devdoc": {
    "kind": "dev",
    "methods": {
      "balanceOf(address,uint256)": {
        "params": {
          "_id": "ID of the Token",
          "_owner": "The address of the token holder"
        },
        "returns": {
          "_0": "The _owner's balance of the Token type requested"
        }
      },
      "balanceOfBatch(address[],uint256[])": {
        "params": {
          "_ids": "ID of the Tokens",
          "_owners": "The addresses of the token holders"
        },
        "returns": {
          "_0": "The _owner's balance of the Token types requested (i.e. balance for each (owner, id) pair)"
        }
      },
      "isApprovedForAll(address,address)": {
        "params": {
          "_operator": "Address of authorized operator",
          "_owner": "The owner of the Tokens"
        },
        "returns": {
          "isOperator": "True if the operator is approved, false if not"
        }
      },
      "safeBatchTransferFrom(address,address,uint256[],uint256[],bytes)": {
        "params": {
          "_amounts": "Transfer amounts per token type",
          "_data": "Additional data with no specified format, sent in call to `_to`",
          "_from": "Source addresses",
          "_ids": "IDs of each token type",
          "_to": "Target addresses"
        }
      },
      "safeTransferFrom(address,address,uint256,uint256,bytes)": {
        "params": {
          "_amount": "Transfered amount",
          "_data": "Additional data with no specified format, sent in call to `_to`",
          "_from": "Source address",
          "_id": "ID of the token type",
          "_to": "Target address"
        }
      },
      "setApprovalForAll(address,bool)": {
        "params": {
          "_approved": "True if the operator is approved, false to revoke approval",
          "_operator": "Address to add to the set of authorized operators"
        }
      },
      "supportsInterface(bytes4)": {
        "params": {
          "_interfaceID": "The interface identifier, as specified in ERC-165"
        },
        "returns": {
          "_0": "`true` if the contract implements `_interfaceID` and"
        }
      }
    },
    "version": 1
  },
  "userdoc": {
    "kind": "user",
    "methods": {
      "balanceOf(address,uint256)": {
        "notice": "Get the balance of an account's Tokens"
      },
      "balanceOfBatch(address[],uint256[])": {
        "notice": "Get the balance of multiple account/token pairs"
      },
      "isApprovedForAll(address,address)": {
        "notice": "Queries the approval status of an operator for a given owner"
      },
      "safeBatchTransferFrom(address,address,uint256[],uint256[],bytes)": {
        "notice": "Send multiple types of Tokens from the _from address to the _to address (with safety call)"
      },
      "safeTransferFrom(address,address,uint256,uint256,bytes)": {
        "notice": "Transfers amount amount of an _id from the _from address to the _to address specified"
      },
      "setApprovalForAll(address,bool)": {
        "notice": "Enable or disable approval for a third party (\"operator\") to manage all of caller's tokens"
      },
      "supportsInterface(bytes4)": {
        "notice": "Query if a contract implements an interface"
      }
    },
    "version": 1
  }
}