{
  "contractName": "Game",
  "abi": [
    {
      "inputs": [
        {
          "internalType": "uint256[]",
          "name": "types",
          "type": "uint256[]"
        },
        {
          "internalType": "uint256",
          "name": "_id",
          "type": "uint256"
        }
      ],
      "name": "generatePoolTokenIDs",
      "outputs": [
        {
          "internalType": "uint256[]",
          "name": "",
          "type": "uint256[]"
        }
      ],
      "stateMutability": "pure",
      "type": "function"
    },
    {
      "inputs": [
        {
          "internalType": "uint256",
          "name": "pool",
          "type": "uint256"
        }
      ],
      "name": "getLendingPool",
      "outputs": [
        {
          "internalType": "uint256[]",
          "name": "",
          "type": "uint256[]"
        },
        {
          "internalType": "uint256[]",
          "name": "",
          "type": "uint256[]"
        },
        {
          "internalType": "uint256",
          "name": "",
          "type": "uint256"
        },
        {
          "internalType": "address",
          "name": "",
          "type": "address"
        }
      ],
      "stateMutability": "view",
      "type": "function"
    },
    {
      "inputs": [
        {
          "internalType": "uint256",
          "name": "pool",
          "type": "uint256"
        }
      ],
      "name": "getLendingPoolAddress",
      "outputs": [
        {
          "internalType": "address",
          "name": "",
          "type": "address"
        }
      ],
      "stateMutability": "view",
      "type": "function"
    },
    {
      "inputs": [],
      "name": "getNextGame",
      "outputs": [
        {
          "internalType": "uint256",
          "name": "",
          "type": "uint256"
        }
      ],
      "stateMutability": "view",
      "type": "function"
    },
    {
      "inputs": [],
      "name": "depositToNextGame",
      "outputs": [],
      "stateMutability": "nonpayable",
      "type": "function"
    },
    {
      "inputs": [
        {
          "internalType": "uint256",
          "name": "game",
          "type": "uint256"
        }
      ],
      "name": "withdrawStake",
      "outputs": [],
      "stateMutability": "nonpayable",
      "type": "function"
    },
    {
      "inputs": [
        {
          "internalType": "uint256",
          "name": "game",
          "type": "uint256"
        },
        {
          "internalType": "uint256[]",
          "name": "Crops",
          "type": "uint256[]"
        },
        {
          "internalType": "uint256[]",
          "name": "balances",
          "type": "uint256[]"
        }
      ],
      "name": "withdrawInterest",
      "outputs": [
        {
          "internalType": "bool",
          "name": "",
          "type": "bool"
        }
      ],
      "stateMutability": "nonpayable",
      "type": "function"
    },
    {
      "inputs": [
        {
          "internalType": "uint256",
          "name": "crop",
          "type": "uint256"
        },
        {
          "internalType": "uint256",
          "name": "interest",
          "type": "uint256"
        },
        {
          "internalType": "uint256[]",
          "name": "interestAllocations",
          "type": "uint256[]"
        },
        {
          "internalType": "uint256[]",
          "name": "totalTokens",
          "type": "uint256[]"
        },
        {
          "internalType": "uint256",
          "name": "userBalance",
          "type": "uint256"
        }
      ],
      "name": "getYield",
      "outputs": [
        {
          "internalType": "uint256",
          "name": "",
          "type": "uint256"
        }
      ],
      "stateMutability": "view",
      "type": "function"
    },
    {
      "inputs": [],
      "name": "initializeNextGame",
      "outputs": [],
      "stateMutability": "nonpayable",
      "type": "function"
    }
  ],
  "bytecode": "0x60806040526040518060400160405280600a60ff168152602001600a60ff1681525060039060026100319291906100c7565b506040518060400160405280603260ff168152602001606460ff16815250600490600261005f9291906100c7565b507324a42fd28c976a61df5d00d0599c34c4f90748c8600760006101000a81548173ffffffffffffffffffffffffffffffffffffffff021916908373ffffffffffffffffffffffffffffffffffffffff1602179055503480156100c157600080fd5b50610136565b828054828255906000526020600020908101928215610108579160200282015b82811115610107578251829060ff169055916020019190600101906100e7565b5b5090506101159190610119565b5090565b5b8082111561013257600081600090555060010161011a565b5090565b611cd1806101456000396000f3fe608060405234801561001057600080fd5b50600436106100935760003560e01c806384567331116100665780638456733114610379578063ab1505bd14610490578063bb29af711461049a578063d09daf5b146104a4578063dba52ddc146104c257610093565b80631c1951f41461009857806325d5971f146101875780632edce823146101b55780637c5873d614610321575b600080fd5b6100c4600480360360208110156100ae57600080fd5b8101908080359060200190929190505050610640565b6040518080602001806020018581526020018473ffffffffffffffffffffffffffffffffffffffff168152602001838103835287818151815260200191508051906020019060200280838360005b8381101561012d578082015181840152602081019050610112565b50505050905001838103825286818151815260200191508051906020019060200280838360005b8381101561016f578082015181840152602081019050610154565b50505050905001965050505050505060405180910390f35b6101b36004803603602081101561019d57600080fd5b810190808035906020019092919050505061076f565b005b610309600480360360608110156101cb57600080fd5b8101908080359060200190929190803590602001906401000000008111156101f257600080fd5b82018360208201111561020457600080fd5b8035906020019184602083028401116401000000008311171561022657600080fd5b919080806020026020016040519081016040528093929190818152602001838360200280828437600081840152601f19601f8201169050808301925050505050505091929192908035906020019064010000000081111561028657600080fd5b82018360208201111561029857600080fd5b803590602001918460208302840111640100000000831117156102ba57600080fd5b919080806020026020016040519081016040528093929190818152602001838360200280828437600081840152601f19601f8201169050808301925050505050505091929192905050506108fb565b60405180821515815260200191505060405180910390f35b61034d6004803603602081101561033757600080fd5b8101908080359060200190929190505050610a7b565b604051808273ffffffffffffffffffffffffffffffffffffffff16815260200191505060405180910390f35b6104396004803603604081101561038f57600080fd5b81019080803590602001906401000000008111156103ac57600080fd5b8201836020820111156103be57600080fd5b803590602001918460208302840111640100000000831117156103e057600080fd5b919080806020026020016040519081016040528093929190818152602001838360200280828437600081840152601f19601f82011690508083019250505050505050919291929080359060200190929190505050610aba565b6040518080602001828103825283818151815260200191508051906020019060200280838360005b8381101561047c578082015181840152602081019050610461565b505050509050019250505060405180910390f35b610498610b12565b005b6104a2610d41565b005b6104ac610e02565b6040518082815260200191505060405180910390f35b61062a600480360360a08110156104d857600080fd5b8101908080359060200190929190803590602001909291908035906020019064010000000081111561050957600080fd5b82018360208201111561051b57600080fd5b8035906020019184602083028401116401000000008311171561053d57600080fd5b919080806020026020016040519081016040528093929190818152602001838360200280828437600081840152601f19601f8201169050808301925050505050505091929192908035906020019064010000000081111561059d57600080fd5b8201836020820111156105af57600080fd5b803590602001918460208302840111640100000000831117156105d157600080fd5b919080806020026020016040519081016040528093929190818152602001838360200280828437600081840152601f19601f82011690508083019250505050505050919291929080359060200190929190505050610e23565b6040518082815260200191505060405180910390f35b6060806000806000808681526020019081526020016000206000016000808781526020019081526020016000206001016000808881526020019081526020016000206002015460008089815260200190815260200160002060030160009054906101000a900473ffffffffffffffffffffffffffffffffffffffff168380548060200260200160405190810160405280929190818152602001828054801561070757602002820191906000526020600020905b8154815260200190600101908083116106f3575b505050505093508280548060200260200160405190810160405280929190818152602001828054801561075957602002820191906000526020600020905b815481526020019060010190808311610745575b5050505050925093509350935093509193509193565b6000600860003373ffffffffffffffffffffffffffffffffffffffff1673ffffffffffffffffffffffffffffffffffffffff1681526020019081526020016000205411610824576040517f08c379a000000000000000000000000000000000000000000000000000000000815260040180806020018281038252600c8152602001807f706f6f6c206973207a65726f000000000000000000000000000000000000000081525060200191505060405180910390fd5b600061082f82610a7b565b90508073ffffffffffffffffffffffffffffffffffffffff166307c48262336040518263ffffffff1660e01b8152600401808273ffffffffffffffffffffffffffffffffffffffff168152602001915050600060405180830381600087803b15801561089a57600080fd5b505af11580156108ae573d6000803e3d6000fd5b505050506000600860008373ffffffffffffffffffffffffffffffffffffffff1673ffffffffffffffffffffffffffffffffffffffff168152602001908152602001600020819055505050565b600060608060008061090c88610640565b93509350935093506000805b88518110156109e5576109d489828151811061093057fe5b60200260200101518473ffffffffffffffffffffffffffffffffffffffff1663c392f7666040518163ffffffff1660e01b815260040160206040518083038186803b15801561097e57600080fd5b505afa158015610992573d6000803e3d6000fd5b505050506040513d60208110156109a857600080fd5b810190808051906020019092919050505088888c86815181106109c757fe5b6020026020010151610e23565b820191508080600101915050610918565b508173ffffffffffffffffffffffffffffffffffffffff1663232d057c33836040518363ffffffff1660e01b8152600401808373ffffffffffffffffffffffffffffffffffffffff16815260200182815260200192505050600060405180830381600087803b158015610a5757600080fd5b505af1158015610a6b573d6000803e3d6000fd5b5050505050505050509392505050565b600080600083815260200190815260200160002060030160009054906101000a900473ffffffffffffffffffffffffffffffffffffffff169050919050565b606060005b8351811015610b0857838181518110610ad457fe5b6020026020010151620186a0840201848281518110610aef57fe5b6020026020010181815250508080600101915050610abf565b5082905092915050565b6000610b1c610e02565b90506000610b2982610a7b565b9050600073ffffffffffffffffffffffffffffffffffffffff168173ffffffffffffffffffffffffffffffffffffffff161415610b6957610b68610d41565b5b600760009054906101000a900473ffffffffffffffffffffffffffffffffffffffff1673ffffffffffffffffffffffffffffffffffffffff166323b872dd33836005546040518463ffffffff1660e01b8152600401808473ffffffffffffffffffffffffffffffffffffffff1681526020018373ffffffffffffffffffffffffffffffffffffffff1681526020018281526020019350505050602060405180830381600087803b158015610c1c57600080fd5b505af1158015610c30573d6000803e3d6000fd5b505050506040513d6020811015610c4657600080fd5b8101908080519060200190929190505050508073ffffffffffffffffffffffffffffffffffffffff166396317646600554336040518363ffffffff1660e01b815260040180838152602001806020018373ffffffffffffffffffffffffffffffffffffffff1681526020018281038252600081526020016020019350505050600060405180830381600087803b158015610cdf57600080fd5b505af1158015610cf3573d6000803e3d6000fd5b50505050600554600860008373ffffffffffffffffffffffffffffffffffffffff1673ffffffffffffffffffffffffffffffffffffffff168152602001908152602001600020819055505050565b6000610d4b610e02565b9050610dff6003805480602002602001604051908101604052809291908181526020018280548015610d9c57602002820191906000526020600020905b815481526020019060010190808311610d88575b50505050506004805480602002602001604051908101604052809291908181526020018280548015610ded57602002820191906000526020600020905b815481526020019060010190808311610dd9575b50505050506005548485600154610e75565b50565b600060015460018054600254420381610e1757fe5b04010260025401905090565b600080620186a08781610e3257fe5b069050838181518110610e4157fe5b6020026020010151858281518110610e5557fe5b60200260200101510283870281610e6857fe5b0491505095945050505050565b6000848383604051610e8690610f9d565b808481526020018381526020018281526020019350505050604051809103906000f080158015610eba573d6000803e3d6000fd5b50905060405180608001604052808881526020018781526020018681526020018273ffffffffffffffffffffffffffffffffffffffff168152506000808681526020019081526020016000206000820151816000019080519060200190610f22929190610faa565b506020820151816001019080519060200190610f3f929190610faa565b506040820151816002015560608201518160030160006101000a81548173ffffffffffffffffffffffffffffffffffffffff021916908373ffffffffffffffffffffffffffffffffffffffff16021790555090505050505050505050565b610c878061101583390190565b828054828255906000526020600020908101928215610fe6579160200282015b82811115610fe5578251825591602001919060010190610fca565b5b509050610ff39190610ff7565b5090565b5b80821115611010576000816000905550600101610ff8565b509056fe60806040526000600760006101000a81548160ff0219169083151502179055507324a42fd28c976a61df5d00d0599c34c4f90748c8600760016101000a81548173ffffffffffffffffffffffffffffffffffffffff021916908373ffffffffffffffffffffffffffffffffffffffff16021790555034801561008057600080fd5b50604051610c87380380610c87833981810160405260608110156100a357600080fd5b8101908080519060200190929190805190602001909291908051906020019092919050505082600081905550816001819055508060028190555033600460006101000a81548173ffffffffffffffffffffffffffffffffffffffff021916908373ffffffffffffffffffffffffffffffffffffffff160217905550505050610b57806101306000396000f3fe608060405234801561001057600080fd5b50600436106100625760003560e01c806307c4826214610067578063232d057c146100ab5780637d882097146100f95780639631764614610117578063c392f766146101ba578063e83cf755146101d8575b600080fd5b6100a96004803603602081101561007d57600080fd5b81019080803573ffffffffffffffffffffffffffffffffffffffff16906020019092919050505061025b565b005b6100f7600480360360408110156100c157600080fd5b81019080803573ffffffffffffffffffffffffffffffffffffffff16906020019092919080359060200190929190505050610487565b005b6101016106b2565b6040518082815260200191505060405180910390f35b6101b86004803603606081101561012d57600080fd5b81019080803590602001909291908035906020019064010000000081111561015457600080fd5b82018360208201111561016657600080fd5b8035906020019184600183028401116401000000008311171561018857600080fd5b9091929391929390803573ffffffffffffffffffffffffffffffffffffffff1690602001909291905050506106b8565b005b6101c261094a565b6040518082815260200191505060405180910390f35b610259600480360360408110156101ee57600080fd5b81019080803590602001909291908035906020019064010000000081111561021557600080fd5b82018360208201111561022757600080fd5b8035906020019184600183028401116401000000008311171561024957600080fd5b9091929391929390505050610950565b005b600460009054906101000a900473ffffffffffffffffffffffffffffffffffffffff1673ffffffffffffffffffffffffffffffffffffffff163373ffffffffffffffffffffffffffffffffffffffff16146102f9576040517f08c379a0000000000000000000000000000000000000000000000000000000008152600401808060200182810382526000815260200160200191505060405180910390fd5b60025460015401421161034f576040517f08c379a0000000000000000000000000000000000000000000000000000000008152600401808060200182810382526000815260200160200191505060405180910390fd5b60011515600760009054906101000a900460ff161515146103b3576040517f08c379a0000000000000000000000000000000000000000000000000000000008152600401808060200182810382526000815260200160200191505060405180910390fd5b600760019054906101000a900473ffffffffffffffffffffffffffffffffffffffff1673ffffffffffffffffffffffffffffffffffffffff1663a9059cbb826000546040518363ffffffff1660e01b8152600401808373ffffffffffffffffffffffffffffffffffffffff16815260200182815260200192505050602060405180830381600087803b15801561044857600080fd5b505af115801561045c573d6000803e3d6000fd5b505050506040513d602081101561047257600080fd5b81019080805190602001909291905050505050565b600460009054906101000a900473ffffffffffffffffffffffffffffffffffffffff1673ffffffffffffffffffffffffffffffffffffffff163373ffffffffffffffffffffffffffffffffffffffff1614610525576040517f08c379a0000000000000000000000000000000000000000000000000000000008152600401808060200182810382526000815260200160200191505060405180910390fd5b60025460015401421161057b576040517f08c379a0000000000000000000000000000000000000000000000000000000008152600401808060200182810382526000815260200160200191505060405180910390fd5b60011515600760009054906101000a900460ff161515146105df576040517f08c379a0000000000000000000000000000000000000000000000000000000008152600401808060200182810382526000815260200160200191505060405180910390fd5b600760019054906101000a900473ffffffffffffffffffffffffffffffffffffffff1673ffffffffffffffffffffffffffffffffffffffff1663a9059cbb83836040518363ffffffff1660e01b8152600401808373ffffffffffffffffffffffffffffffffffffffff16815260200182815260200192505050602060405180830381600087803b15801561067257600080fd5b505af1158015610686573d6000803e3d6000fd5b505050506040513d602081101561069c57600080fd5b8101908080519060200190929190505050505050565b60065481565b60015442106106c657600080fd5b60007324a42fd28c976a61df5d00d0599c34c4f90748c8905060008173ffffffffffffffffffffffffffffffffffffffff16630261bf8b6040518163ffffffff1660e01b815260040160206040518083038186803b15801561072757600080fd5b505afa15801561073b573d6000803e3d6000fd5b505050506040513d602081101561075157600080fd5b810190808051906020019092919050505090506000736b175474e89094c44da98b954eedeac495271d0f905060008173ffffffffffffffffffffffffffffffffffffffff1663095ea7b38573ffffffffffffffffffffffffffffffffffffffff1663ed6ff7606040518163ffffffff1660e01b815260040160206040518083038186803b1580156107e157600080fd5b505afa1580156107f5573d6000803e3d6000fd5b505050506040513d602081101561080b57600080fd5b81019080805190602001909291905050506000546040518363ffffffff1660e01b8152600401808373ffffffffffffffffffffffffffffffffffffffff16815260200182815260200192505050602060405180830381600087803b15801561087257600080fd5b505af1158015610886573d6000803e3d6000fd5b505050506040513d602081101561089c57600080fd5b8101908080519060200190929190505050508273ffffffffffffffffffffffffffffffffffffffff1662aeef8a6000548a846040518463ffffffff1660e01b8152600401808481526020018381526020018261ffff1681526020019350505050600060405180830381600087803b15801561091657600080fd5b505af115801561092a573d6000803e3d6000fd5b505050506000546006600082825401925050819055505050505050505050565b60035481565b6002546001540142116109a6576040517f08c379a0000000000000000000000000000000000000000000000000000000008152600401808060200182810382526000815260200160200191505060405180910390fd5b6001600760006101000a81548160ff021916908315150217905550600654600560009054906101000a900473ffffffffffffffffffffffffffffffffffffffff1673ffffffffffffffffffffffffffffffffffffffff166370a08231306040518263ffffffff1660e01b8152600401808273ffffffffffffffffffffffffffffffffffffffff16815260200191505060206040518083038186803b158015610a4d57600080fd5b505afa158015610a61573d6000803e3d6000fd5b505050506040513d6020811015610a7757600080fd5b810190808051906020019092919050505003600381905550600560009054906101000a900473ffffffffffffffffffffffffffffffffffffffff1673ffffffffffffffffffffffffffffffffffffffff1663db006a75846040518263ffffffff1660e01b815260040180828152602001915050600060405180830381600087803b158015610b0457600080fd5b505af1158015610b18573d6000803e3d6000fd5b5050505050505056fea2646970667358221220c23149cb04328d1c430bbdfb4b67c4dec96772631cef495bfbe0adeb573aaad764736f6c634300060c0033a26469706673582212208b2b625f47cec01a66e0fc215a83c067fe2ab04041e3330ac932a2b82e2943f964736f6c634300060c0033",
  "source": "pragma solidity ^0.6.12;\nimport \"./PoolHandler.sol\";\nimport \"./Interfaces/IERC20.sol\";\nimport \"./Pool.sol\";\n//import \"./CropToken.sol\";\ncontract Game is PoolHandler{\n    uint gameinterval;\n    uint first_game;\n    uint[] defaultAllocation=[10,10];\n    uint[] defaultLimits=[50,100];\n    uint defaultDeposit;\n    address farmLocation;\n    address DAI=address(0x24a42fD28C976A61Df5D00D0599C34c4f90748c8);\n    mapping(address=>uint) gamePoolDeposits;\n    function getNextGame() public view returns(uint){\n        return first_game+(((now-first_game)/gameinterval)+1)*gameinterval;\n    }\n\n    function depositToNextGame() external {\n       uint game=getNextGame();\n       address gamePool=getLendingPoolAddress(game);\n       if(gamePool==address(0)){\n           initializeNextGame();\n       }\n       IERC20(DAI).transferFrom(msg.sender,gamePool,defaultDeposit);\n       Pool(gamePool).deposit(defaultDeposit, '',msg.sender);\n       gamePoolDeposits[gamePool]=defaultDeposit;\n    }\n\n\n    function withdrawStake(uint game) external{\n        require(gamePoolDeposits[msg.sender]>0,\"pool is zero\");\n        address gamePool = getLendingPoolAddress(game);\n        Pool(gamePool).transferDepositToUser(msg.sender);\n        gamePoolDeposits[gamePool]=0;\n    }\n\n    function withdrawInterest(uint game, uint[] memory Crops,uint[] memory balances) external returns(bool){\n        //CropToken(farmLocation).burn(msg.sender, Crops, balances);\n        (uint[] memory interestAllocations,\n         uint[] memory totalTokens,\n         uint depositValue,\n         address tokenHolder)=getLendingPool(game);\n         \n         uint earnings=0;\n         for(uint i=0;i<Crops.length;i++){\n             earnings +=getYield(Crops[i],Pool(tokenHolder).interest(),interestAllocations,totalTokens,balances[i]);\n         }\n        Pool(tokenHolder).transferInterestToUser(msg.sender,earnings);\n    }\n    function getYield(uint crop,uint interest,uint[] memory interestAllocations,uint[] memory totalTokens,uint userBalance) public view returns (uint){\n        uint location=crop%100000;\n        return((interest*userBalance)/(interestAllocations[location]*totalTokens[location]));\n    }\n    function initializeNextGame() public {\n        uint next=getNextGame();\n        createPool(defaultAllocation,defaultLimits,defaultDeposit,next,next,gameinterval);\n    }\n\n}",
  "sourcePath": "/Users/jjj/CHAINLINKHACK/realyield.farm-contracts/contracts/Game.sol",
  "compiler": {
    "name": "solc",
    "version": "0.6.12+commit.27d51765.Linux.g++"
  },
  "schemaVersion": "3.0.13",
  "updatedAt": "2020-09-13T23:55:20.360Z",
  "devdoc": {
    "kind": "dev",
    "methods": {},
    "version": 1
  },
  "userdoc": {
    "kind": "user",
    "methods": {},
    "version": 1
  }
}