{
  "contractName": "PoolHandler",
  "abi": [
    {
      "inputs": [
        {
          "internalType": "uint256[]",
          "name": "types",
          "type": "uint256[]"
        },
        {
          "internalType": "uint256",
          "name": "_id",
          "type": "uint256"
        }
      ],
      "name": "generatePoolTokenIDs",
      "outputs": [
        {
          "internalType": "uint256[]",
          "name": "",
          "type": "uint256[]"
        }
      ],
      "stateMutability": "pure",
      "type": "function"
    },
    {
      "inputs": [
        {
          "internalType": "uint256",
          "name": "pool",
          "type": "uint256"
        }
      ],
      "name": "getLendingPool",
      "outputs": [
        {
          "internalType": "uint256[]",
          "name": "",
          "type": "uint256[]"
        },
        {
          "internalType": "uint256[]",
          "name": "",
          "type": "uint256[]"
        },
        {
          "internalType": "uint256",
          "name": "",
          "type": "uint256"
        },
        {
          "internalType": "address",
          "name": "",
          "type": "address"
        }
      ],
      "stateMutability": "view",
      "type": "function"
    },
    {
      "inputs": [
        {
          "internalType": "uint256",
          "name": "pool",
          "type": "uint256"
        }
      ],
      "name": "getLendingPoolAddress",
      "outputs": [
        {
          "internalType": "address",
          "name": "",
          "type": "address"
        }
      ],
      "stateMutability": "view",
      "type": "function"
    }
  ],
  "bytecode": "0x608060405234801561001057600080fd5b506104a0806100206000396000f3fe608060405234801561001057600080fd5b50600436106100415760003560e01c80631c1951f4146100465780637c5873d614610135578063845673311461018d575b600080fd5b6100726004803603602081101561005c57600080fd5b81019080803590602001909291905050506102a4565b6040518080602001806020018581526020018473ffffffffffffffffffffffffffffffffffffffff168152602001838103835287818151815260200191508051906020019060200280838360005b838110156100db5780820151818401526020810190506100c0565b50505050905001838103825286818151815260200191508051906020019060200280838360005b8381101561011d578082015181840152602081019050610102565b50505050905001965050505050505060405180910390f35b6101616004803603602081101561014b57600080fd5b81019080803590602001909291905050506103d3565b604051808273ffffffffffffffffffffffffffffffffffffffff16815260200191505060405180910390f35b61024d600480360360408110156101a357600080fd5b81019080803590602001906401000000008111156101c057600080fd5b8201836020820111156101d257600080fd5b803590602001918460208302840111640100000000831117156101f457600080fd5b919080806020026020016040519081016040528093929190818152602001838360200280828437600081840152601f19601f82011690508083019250505050505050919291929080359060200190929190505050610412565b6040518080602001828103825283818151815260200191508051906020019060200280838360005b83811015610290578082015181840152602081019050610275565b505050509050019250505060405180910390f35b6060806000806000808681526020019081526020016000206000016000808781526020019081526020016000206001016000808881526020019081526020016000206002015460008089815260200190815260200160002060030160009054906101000a900473ffffffffffffffffffffffffffffffffffffffff168380548060200260200160405190810160405280929190818152602001828054801561036b57602002820191906000526020600020905b815481526020019060010190808311610357575b50505050509350828054806020026020016040519081016040528092919081815260200182805480156103bd57602002820191906000526020600020905b8154815260200190600101908083116103a9575b5050505050925093509350935093509193509193565b600080600083815260200190815260200160002060030160009054906101000a900473ffffffffffffffffffffffffffffffffffffffff169050919050565b606060005b83518110156104605783818151811061042c57fe5b6020026020010151620186a084020184828151811061044757fe5b6020026020010181815250508080600101915050610417565b508290509291505056fea26469706673582212202ee010befccfe8164c5fa7681341f7ed1b0a13cbe7f49da97be4362a70d1b3f864736f6c634300060c0033",
  "source": "// File: @openzeppelin\\contracts-ethereum-package\\contracts\\Initializable.sol\npragma solidity ^0.6.12;\nimport './Interfaces/IERC20.sol';\nimport './libraries/SafeMath.sol';\nimport './Pool.sol';\n\n\n\n\n\n\n\ncontract PoolHandler {\n    \n    using SafeMath for uint256;\n\t\n\tmapping(uint=>pool) stakingPools;\n    \n\tstruct pool{\n        uint[] interestAllocations;\n        uint[] totalTokens;\n        uint depositValue;\n        address tokenHolder;\n        \n        \n    }\n    function generatePoolTokenIDs(uint[] memory types,uint _id) public pure returns(uint[] memory){\n        \n        for(uint i=0;i<types.length;i++){\n            types[i]=_id*100000+types[i];\n        }\n        return types;\n    }\n\tfunction getLendingPool(uint pool)  public view returns(uint[] memory,uint[] memory ,uint,address){\n        return (stakingPools[pool].interestAllocations,stakingPools[pool].totalTokens,stakingPools[pool].depositValue,stakingPools[pool].tokenHolder);\n    }\n    function getLendingPoolAddress(uint pool) public  view returns(address){\n        return stakingPools[pool].tokenHolder;\n    }\n    function createPool(uint[] memory _interestAllocations,uint[] memory _totalTokens,uint _depositValue,uint _id,uint _lockstart,uint _lockduration) internal{\n        Pool _Pool=new Pool(_depositValue,_lockstart, _lockduration);\n        stakingPools[_id]=pool(_interestAllocations,_totalTokens,_depositValue,address(_Pool));\n    }\t  \n    \n    \n}",
  "sourcePath": "/Users/jjj/CHAINLINKHACK/realyield.farm-contracts/contracts/PoolHandler.sol",
  "compiler": {
    "name": "solc",
    "version": "0.6.12+commit.27d51765.Linux.g++"
  },
  "schemaVersion": "3.0.13",
  "updatedAt": "2020-09-13T23:55:20.375Z",
  "devdoc": {
    "kind": "dev",
    "methods": {},
    "version": 1
  },
  "userdoc": {
    "kind": "user",
    "methods": {},
    "version": 1
  }
}