{
  "contractName": "Pool",
  "abi": [
    {
      "inputs": [
        {
          "internalType": "uint256",
          "name": "_deposit",
          "type": "uint256"
        },
        {
          "internalType": "uint256",
          "name": "_lockstart",
          "type": "uint256"
        },
        {
          "internalType": "uint256",
          "name": "_lockduration",
          "type": "uint256"
        }
      ],
      "stateMutability": "nonpayable",
      "type": "constructor"
    },
    {
      "inputs": [],
      "name": "interest",
      "outputs": [
        {
          "internalType": "uint256",
          "name": "",
          "type": "uint256"
        }
      ],
      "stateMutability": "view",
      "type": "function"
    },
    {
      "inputs": [],
      "name": "totalDeposits",
      "outputs": [
        {
          "internalType": "uint256",
          "name": "",
          "type": "uint256"
        }
      ],
      "stateMutability": "view",
      "type": "function"
    },
    {
      "inputs": [
        {
          "internalType": "uint256",
          "name": "amount",
          "type": "uint256"
        },
        {
          "internalType": "bytes",
          "name": "data",
          "type": "bytes"
        },
        {
          "internalType": "address",
          "name": "user",
          "type": "address"
        }
      ],
      "name": "deposit",
      "outputs": [],
      "stateMutability": "nonpayable",
      "type": "function"
    },
    {
      "inputs": [
        {
          "internalType": "uint256",
          "name": "amount",
          "type": "uint256"
        },
        {
          "internalType": "bytes",
          "name": "data",
          "type": "bytes"
        }
      ],
      "name": "withdrawDeposits",
      "outputs": [],
      "stateMutability": "nonpayable",
      "type": "function"
    },
    {
      "inputs": [
        {
          "internalType": "address",
          "name": "user",
          "type": "address"
        }
      ],
      "name": "transferDepositToUser",
      "outputs": [],
      "stateMutability": "nonpayable",
      "type": "function"
    },
    {
      "inputs": [
        {
          "internalType": "address",
          "name": "user",
          "type": "address"
        },
        {
          "internalType": "uint256",
          "name": "amount",
          "type": "uint256"
        }
      ],
      "name": "transferInterestToUser",
      "outputs": [],
      "stateMutability": "nonpayable",
      "type": "function"
    }
  ],
  "bytecode": "0x60806040526000600760006101000a81548160ff0219169083151502179055507324a42fd28c976a61df5d00d0599c34c4f90748c8600760016101000a81548173ffffffffffffffffffffffffffffffffffffffff021916908373ffffffffffffffffffffffffffffffffffffffff16021790555034801561008057600080fd5b50604051610c87380380610c87833981810160405260608110156100a357600080fd5b8101908080519060200190929190805190602001909291908051906020019092919050505082600081905550816001819055508060028190555033600460006101000a81548173ffffffffffffffffffffffffffffffffffffffff021916908373ffffffffffffffffffffffffffffffffffffffff160217905550505050610b57806101306000396000f3fe608060405234801561001057600080fd5b50600436106100625760003560e01c806307c4826214610067578063232d057c146100ab5780637d882097146100f95780639631764614610117578063c392f766146101ba578063e83cf755146101d8575b600080fd5b6100a96004803603602081101561007d57600080fd5b81019080803573ffffffffffffffffffffffffffffffffffffffff16906020019092919050505061025b565b005b6100f7600480360360408110156100c157600080fd5b81019080803573ffffffffffffffffffffffffffffffffffffffff16906020019092919080359060200190929190505050610487565b005b6101016106b2565b6040518082815260200191505060405180910390f35b6101b86004803603606081101561012d57600080fd5b81019080803590602001909291908035906020019064010000000081111561015457600080fd5b82018360208201111561016657600080fd5b8035906020019184600183028401116401000000008311171561018857600080fd5b9091929391929390803573ffffffffffffffffffffffffffffffffffffffff1690602001909291905050506106b8565b005b6101c261094a565b6040518082815260200191505060405180910390f35b610259600480360360408110156101ee57600080fd5b81019080803590602001909291908035906020019064010000000081111561021557600080fd5b82018360208201111561022757600080fd5b8035906020019184600183028401116401000000008311171561024957600080fd5b9091929391929390505050610950565b005b600460009054906101000a900473ffffffffffffffffffffffffffffffffffffffff1673ffffffffffffffffffffffffffffffffffffffff163373ffffffffffffffffffffffffffffffffffffffff16146102f9576040517f08c379a0000000000000000000000000000000000000000000000000000000008152600401808060200182810382526000815260200160200191505060405180910390fd5b60025460015401421161034f576040517f08c379a0000000000000000000000000000000000000000000000000000000008152600401808060200182810382526000815260200160200191505060405180910390fd5b60011515600760009054906101000a900460ff161515146103b3576040517f08c379a0000000000000000000000000000000000000000000000000000000008152600401808060200182810382526000815260200160200191505060405180910390fd5b600760019054906101000a900473ffffffffffffffffffffffffffffffffffffffff1673ffffffffffffffffffffffffffffffffffffffff1663a9059cbb826000546040518363ffffffff1660e01b8152600401808373ffffffffffffffffffffffffffffffffffffffff16815260200182815260200192505050602060405180830381600087803b15801561044857600080fd5b505af115801561045c573d6000803e3d6000fd5b505050506040513d602081101561047257600080fd5b81019080805190602001909291905050505050565b600460009054906101000a900473ffffffffffffffffffffffffffffffffffffffff1673ffffffffffffffffffffffffffffffffffffffff163373ffffffffffffffffffffffffffffffffffffffff1614610525576040517f08c379a0000000000000000000000000000000000000000000000000000000008152600401808060200182810382526000815260200160200191505060405180910390fd5b60025460015401421161057b576040517f08c379a0000000000000000000000000000000000000000000000000000000008152600401808060200182810382526000815260200160200191505060405180910390fd5b60011515600760009054906101000a900460ff161515146105df576040517f08c379a0000000000000000000000000000000000000000000000000000000008152600401808060200182810382526000815260200160200191505060405180910390fd5b600760019054906101000a900473ffffffffffffffffffffffffffffffffffffffff1673ffffffffffffffffffffffffffffffffffffffff1663a9059cbb83836040518363ffffffff1660e01b8152600401808373ffffffffffffffffffffffffffffffffffffffff16815260200182815260200192505050602060405180830381600087803b15801561067257600080fd5b505af1158015610686573d6000803e3d6000fd5b505050506040513d602081101561069c57600080fd5b8101908080519060200190929190505050505050565b60065481565b60015442106106c657600080fd5b60007324a42fd28c976a61df5d00d0599c34c4f90748c8905060008173ffffffffffffffffffffffffffffffffffffffff16630261bf8b6040518163ffffffff1660e01b815260040160206040518083038186803b15801561072757600080fd5b505afa15801561073b573d6000803e3d6000fd5b505050506040513d602081101561075157600080fd5b810190808051906020019092919050505090506000736b175474e89094c44da98b954eedeac495271d0f905060008173ffffffffffffffffffffffffffffffffffffffff1663095ea7b38573ffffffffffffffffffffffffffffffffffffffff1663ed6ff7606040518163ffffffff1660e01b815260040160206040518083038186803b1580156107e157600080fd5b505afa1580156107f5573d6000803e3d6000fd5b505050506040513d602081101561080b57600080fd5b81019080805190602001909291905050506000546040518363ffffffff1660e01b8152600401808373ffffffffffffffffffffffffffffffffffffffff16815260200182815260200192505050602060405180830381600087803b15801561087257600080fd5b505af1158015610886573d6000803e3d6000fd5b505050506040513d602081101561089c57600080fd5b8101908080519060200190929190505050508273ffffffffffffffffffffffffffffffffffffffff1662aeef8a6000548a846040518463ffffffff1660e01b8152600401808481526020018381526020018261ffff1681526020019350505050600060405180830381600087803b15801561091657600080fd5b505af115801561092a573d6000803e3d6000fd5b505050506000546006600082825401925050819055505050505050505050565b60035481565b6002546001540142116109a6576040517f08c379a0000000000000000000000000000000000000000000000000000000008152600401808060200182810382526000815260200160200191505060405180910390fd5b6001600760006101000a81548160ff021916908315150217905550600654600560009054906101000a900473ffffffffffffffffffffffffffffffffffffffff1673ffffffffffffffffffffffffffffffffffffffff166370a08231306040518263ffffffff1660e01b8152600401808273ffffffffffffffffffffffffffffffffffffffff16815260200191505060206040518083038186803b158015610a4d57600080fd5b505afa158015610a61573d6000803e3d6000fd5b505050506040513d6020811015610a7757600080fd5b810190808051906020019092919050505003600381905550600560009054906101000a900473ffffffffffffffffffffffffffffffffffffffff1673ffffffffffffffffffffffffffffffffffffffff1663db006a75846040518263ffffffff1660e01b815260040180828152602001915050600060405180830381600087803b158015610b0457600080fd5b505af1158015610b18573d6000803e3d6000fd5b5050505050505056fea2646970667358221220c23149cb04328d1c430bbdfb4b67c4dec96772631cef495bfbe0adeb573aaad764736f6c634300060c0033",
  "source": "pragma solidity ^0.6.0;\nimport \"./Interfaces/Atoken.sol\";\nimport \"./Interfaces/ILendingPoolAddressesProvider.sol\";\nimport \"./Interfaces/ILendingPool.sol\";\nimport \"./Interfaces/IERC20.sol\";\ncontract Pool {\n    uint depositAmount;\n    uint lockstart;\n    uint lockduration;\n    uint public interest;\n    address creator;\n    address atoken;\n    uint public totalDeposits;\n    bool finished=false;\n    address daiAddress=address(0x24a42fD28C976A61Df5D00D0599C34c4f90748c8);\n    \n    constructor(uint _deposit,uint _lockstart,uint _lockduration) public{\n        depositAmount=_deposit;\n        lockstart=_lockstart;\n        lockduration=_lockduration;\n        creator=msg.sender;\n    }\n    function deposit(uint256 amount, bytes calldata data,address user) public {\n        require(now<lockstart);\n        ILendingPoolAddressesProvider provider = ILendingPoolAddressesProvider(address(0x24a42fD28C976A61Df5D00D0599C34c4f90748c8)); // mainnet address, for other addresses: https://docs.aave.com/developers/developing-on-aave/deployed-contract-instances\n        ILendingPool lendingPool = ILendingPool(provider.getLendingPool());\n\n        \n        address daiAddress = address(0x6B175474E89094C44Da98b954EedeAC495271d0F); // mainnet DAI\n        \n        uint16 referral = 0;\n\n      \n        IERC20(daiAddress).approve(provider.getLendingPoolCore(), depositAmount);\n\n    \n        lendingPool.deposit(depositAmount, amount, referral);\n        totalDeposits+=depositAmount;\n    }\n\n     \n   \n     \n     function withdrawDeposits(uint256 amount, bytes calldata data) public{\n         require(now>lockstart+lockduration,\"\");\n         finished=true;\n         interest=AToken(atoken).balanceOf(address(this))-totalDeposits;\n         AToken(atoken).redeem(amount);\n     }\n    function transferDepositToUser(address user) public{\n         require(msg.sender==creator,\"\");\n         require(now>lockstart+lockduration,\"\");\n         require(finished==true,\"\");\n         //require(deposited[msg.sender]==true);\n         IERC20(daiAddress).transfer(user,depositAmount);\n         \n    }\n    function transferInterestToUser(address user,uint amount) public{\n         require(msg.sender==creator,\"\");\n         require(now>lockstart+lockduration,\"\");\n         require(finished==true,\"\");\n         IERC20(daiAddress).transfer(user,amount);\n    }\n}",
  "sourcePath": "/Users/jjj/CHAINLINKHACK/realyield.farm-contracts/contracts/Pool.sol",
  "compiler": {
    "name": "solc",
    "version": "0.6.12+commit.27d51765.Linux.g++"
  },
  "schemaVersion": "3.0.13",
  "updatedAt": "2020-09-13T23:29:35.750Z",
  "devdoc": {
    "kind": "dev",
    "methods": {},
    "version": 1
  },
  "userdoc": {
    "kind": "user",
    "methods": {},
    "version": 1
  }
}